{
  "_format": "hh-sol-artifact-1",
  "contractName": "Exchange",
  "sourceName": "contracts/Exchange.sol",
  "abi": [
    {
      "inputs": [
        {
          "internalType": "address",
          "name": "_paymentToken",
          "type": "address"
        },
        {
          "internalType": "address",
          "name": "_outcomeToken",
          "type": "address"
        },
        {
          "internalType": "address",
          "name": "_treasury",
          "type": "address"
        }
      ],
      "stateMutability": "nonpayable",
      "type": "constructor"
    },
    {
      "inputs": [],
      "name": "InvalidShortString",
      "type": "error"
    },
    {
      "inputs": [
        {
          "internalType": "string",
          "name": "str",
          "type": "string"
        }
      ],
      "name": "StringTooLong",
      "type": "error"
    },
    {
      "anonymous": false,
      "inputs": [],
      "name": "EIP712DomainChanged",
      "type": "event"
    },
    {
      "anonymous": false,
      "inputs": [
        {
          "indexed": true,
          "internalType": "bytes32",
          "name": "orderHash",
          "type": "bytes32"
        },
        {
          "indexed": true,
          "internalType": "address",
          "name": "maker",
          "type": "address"
        }
      ],
      "name": "OrderCanceled",
      "type": "event"
    },
    {
      "anonymous": false,
      "inputs": [
        {
          "indexed": true,
          "internalType": "bytes32",
          "name": "orderHash",
          "type": "bytes32"
        },
        {
          "indexed": true,
          "internalType": "address",
          "name": "maker",
          "type": "address"
        },
        {
          "indexed": true,
          "internalType": "address",
          "name": "taker",
          "type": "address"
        },
        {
          "indexed": false,
          "internalType": "uint256",
          "name": "marketId",
          "type": "uint256"
        },
        {
          "indexed": false,
          "internalType": "uint256",
          "name": "outcomeId",
          "type": "uint256"
        },
        {
          "indexed": false,
          "internalType": "uint256",
          "name": "price",
          "type": "uint256"
        },
        {
          "indexed": false,
          "internalType": "uint256",
          "name": "size",
          "type": "uint256"
        },
        {
          "indexed": false,
          "internalType": "uint256",
          "name": "fee",
          "type": "uint256"
        }
      ],
      "name": "OrderFilled",
      "type": "event"
    },
    {
      "anonymous": false,
      "inputs": [
        {
          "indexed": true,
          "internalType": "address",
          "name": "previousOwner",
          "type": "address"
        },
        {
          "indexed": true,
          "internalType": "address",
          "name": "newOwner",
          "type": "address"
        }
      ],
      "name": "OwnershipTransferred",
      "type": "event"
    },
    {
      "inputs": [],
      "name": "DOMAIN_SEPARATOR",
      "outputs": [
        {
          "internalType": "bytes32",
          "name": "",
          "type": "bytes32"
        }
      ],
      "stateMutability": "view",
      "type": "function"
    },
    {
      "inputs": [],
      "name": "ORDER_TYPEHASH",
      "outputs": [
        {
          "internalType": "bytes32",
          "name": "",
          "type": "bytes32"
        }
      ],
      "stateMutability": "view",
      "type": "function"
    },
    {
      "inputs": [
        {
          "components": [
            {
              "internalType": "address",
              "name": "maker",
              "type": "address"
            },
            {
              "internalType": "uint256",
              "name": "marketId",
              "type": "uint256"
            },
            {
              "internalType": "uint256",
              "name": "outcomeId",
              "type": "uint256"
            },
            {
              "internalType": "uint256",
              "name": "price",
              "type": "uint256"
            },
            {
              "internalType": "uint256",
              "name": "size",
              "type": "uint256"
            },
            {
              "internalType": "bool",
              "name": "side",
              "type": "bool"
            },
            {
              "internalType": "uint256",
              "name": "expiry",
              "type": "uint256"
            },
            {
              "internalType": "uint256",
              "name": "salt",
              "type": "uint256"
            },
            {
              "internalType": "bytes",
              "name": "signature",
              "type": "bytes"
            }
          ],
          "internalType": "struct Exchange.Order",
          "name": "order",
          "type": "tuple"
        }
      ],
      "name": "cancelOrder",
      "outputs": [],
      "stateMutability": "nonpayable",
      "type": "function"
    },
    {
      "inputs": [],
      "name": "eip712Domain",
      "outputs": [
        {
          "internalType": "bytes1",
          "name": "fields",
          "type": "bytes1"
        },
        {
          "internalType": "string",
          "name": "name",
          "type": "string"
        },
        {
          "internalType": "string",
          "name": "version",
          "type": "string"
        },
        {
          "internalType": "uint256",
          "name": "chainId",
          "type": "uint256"
        },
        {
          "internalType": "address",
          "name": "verifyingContract",
          "type": "address"
        },
        {
          "internalType": "bytes32",
          "name": "salt",
          "type": "bytes32"
        },
        {
          "internalType": "uint256[]",
          "name": "extensions",
          "type": "uint256[]"
        }
      ],
      "stateMutability": "view",
      "type": "function"
    },
    {
      "inputs": [
        {
          "components": [
            {
              "internalType": "address",
              "name": "maker",
              "type": "address"
            },
            {
              "internalType": "uint256",
              "name": "marketId",
              "type": "uint256"
            },
            {
              "internalType": "uint256",
              "name": "outcomeId",
              "type": "uint256"
            },
            {
              "internalType": "uint256",
              "name": "price",
              "type": "uint256"
            },
            {
              "internalType": "uint256",
              "name": "size",
              "type": "uint256"
            },
            {
              "internalType": "bool",
              "name": "side",
              "type": "bool"
            },
            {
              "internalType": "uint256",
              "name": "expiry",
              "type": "uint256"
            },
            {
              "internalType": "uint256",
              "name": "salt",
              "type": "uint256"
            },
            {
              "internalType": "bytes",
              "name": "signature",
              "type": "bytes"
            }
          ],
          "internalType": "struct Exchange.Order",
          "name": "makerOrder",
          "type": "tuple"
        },
        {
          "internalType": "uint256",
          "name": "takerSize",
          "type": "uint256"
        }
      ],
      "name": "fillOrder",
      "outputs": [
        {
          "internalType": "bool",
          "name": "",
          "type": "bool"
        }
      ],
      "stateMutability": "nonpayable",
      "type": "function"
    },
    {
      "inputs": [
        {
          "components": [
            {
              "internalType": "address",
              "name": "maker",
              "type": "address"
            },
            {
              "internalType": "uint256",
              "name": "marketId",
              "type": "uint256"
            },
            {
              "internalType": "uint256",
              "name": "outcomeId",
              "type": "uint256"
            },
            {
              "internalType": "uint256",
              "name": "price",
              "type": "uint256"
            },
            {
              "internalType": "uint256",
              "name": "size",
              "type": "uint256"
            },
            {
              "internalType": "bool",
              "name": "side",
              "type": "bool"
            },
            {
              "internalType": "uint256",
              "name": "expiry",
              "type": "uint256"
            },
            {
              "internalType": "uint256",
              "name": "salt",
              "type": "uint256"
            },
            {
              "internalType": "bytes",
              "name": "signature",
              "type": "bytes"
            }
          ],
          "internalType": "struct Exchange.Order",
          "name": "order",
          "type": "tuple"
        }
      ],
      "name": "getOrderHash",
      "outputs": [
        {
          "internalType": "bytes32",
          "name": "",
          "type": "bytes32"
        }
      ],
      "stateMutability": "view",
      "type": "function"
    },
    {
      "inputs": [
        {
          "internalType": "uint256",
          "name": "count",
          "type": "uint256"
        }
      ],
      "name": "getRecentTrades",
      "outputs": [
        {
          "components": [
            {
              "internalType": "uint256",
              "name": "marketId",
              "type": "uint256"
            },
            {
              "internalType": "address",
              "name": "maker",
              "type": "address"
            },
            {
              "internalType": "address",
              "name": "taker",
              "type": "address"
            },
            {
              "internalType": "uint256",
              "name": "outcomeId",
              "type": "uint256"
            },
            {
              "internalType": "uint256",
              "name": "price",
              "type": "uint256"
            },
            {
              "internalType": "uint256",
              "name": "size",
              "type": "uint256"
            },
            {
              "internalType": "uint256",
              "name": "timestamp",
              "type": "uint256"
            }
          ],
          "internalType": "struct Exchange.Trade[]",
          "name": "",
          "type": "tuple[]"
        }
      ],
      "stateMutability": "view",
      "type": "function"
    },
    {
      "inputs": [
        {
          "internalType": "uint256",
          "name": "marketId",
          "type": "uint256"
        },
        {
          "internalType": "uint256",
          "name": "outcomeId",
          "type": "uint256"
        }
      ],
      "name": "getTokenId",
      "outputs": [
        {
          "internalType": "uint256",
          "name": "",
          "type": "uint256"
        }
      ],
      "stateMutability": "pure",
      "type": "function"
    },
    {
      "inputs": [
        {
          "internalType": "bytes32",
          "name": "",
          "type": "bytes32"
        }
      ],
      "name": "orderCanceled",
      "outputs": [
        {
          "internalType": "bool",
          "name": "",
          "type": "bool"
        }
      ],
      "stateMutability": "view",
      "type": "function"
    },
    {
      "inputs": [
        {
          "internalType": "bytes32",
          "name": "",
          "type": "bytes32"
        }
      ],
      "name": "orderFilled",
      "outputs": [
        {
          "internalType": "bool",
          "name": "",
          "type": "bool"
        }
      ],
      "stateMutability": "view",
      "type": "function"
    },
    {
      "inputs": [],
      "name": "outcomeToken",
      "outputs": [
        {
          "internalType": "contract IERC1155",
          "name": "",
          "type": "address"
        }
      ],
      "stateMutability": "view",
      "type": "function"
    },
    {
      "inputs": [],
      "name": "owner",
      "outputs": [
        {
          "internalType": "address",
          "name": "",
          "type": "address"
        }
      ],
      "stateMutability": "view",
      "type": "function"
    },
    {
      "inputs": [],
      "name": "paymentToken",
      "outputs": [
        {
          "internalType": "contract IERC20",
          "name": "",
          "type": "address"
        }
      ],
      "stateMutability": "view",
      "type": "function"
    },
    {
      "inputs": [],
      "name": "platformFeeBps",
      "outputs": [
        {
          "internalType": "uint256",
          "name": "",
          "type": "uint256"
        }
      ],
      "stateMutability": "view",
      "type": "function"
    },
    {
      "inputs": [],
      "name": "renounceOwnership",
      "outputs": [],
      "stateMutability": "nonpayable",
      "type": "function"
    },
    {
      "inputs": [
        {
          "internalType": "uint256",
          "name": "_feeBps",
          "type": "uint256"
        }
      ],
      "name": "setPlatformFee",
      "outputs": [],
      "stateMutability": "nonpayable",
      "type": "function"
    },
    {
      "inputs": [
        {
          "internalType": "address",
          "name": "_treasury",
          "type": "address"
        }
      ],
      "name": "setTreasury",
      "outputs": [],
      "stateMutability": "nonpayable",
      "type": "function"
    },
    {
      "inputs": [
        {
          "internalType": "uint256",
          "name": "",
          "type": "uint256"
        }
      ],
      "name": "trades",
      "outputs": [
        {
          "internalType": "uint256",
          "name": "marketId",
          "type": "uint256"
        },
        {
          "internalType": "address",
          "name": "maker",
          "type": "address"
        },
        {
          "internalType": "address",
          "name": "taker",
          "type": "address"
        },
        {
          "internalType": "uint256",
          "name": "outcomeId",
          "type": "uint256"
        },
        {
          "internalType": "uint256",
          "name": "price",
          "type": "uint256"
        },
        {
          "internalType": "uint256",
          "name": "size",
          "type": "uint256"
        },
        {
          "internalType": "uint256",
          "name": "timestamp",
          "type": "uint256"
        }
      ],
      "stateMutability": "view",
      "type": "function"
    },
    {
      "inputs": [
        {
          "internalType": "address",
          "name": "newOwner",
          "type": "address"
        }
      ],
      "name": "transferOwnership",
      "outputs": [],
      "stateMutability": "nonpayable",
      "type": "function"
    },
    {
      "inputs": [],
      "name": "treasury",
      "outputs": [
        {
          "internalType": "address",
          "name": "",
          "type": "address"
        }
      ],
      "stateMutability": "view",
      "type": "function"
    },
    {
      "inputs": [
        {
          "internalType": "address",
          "name": "",
          "type": "address"
        },
        {
          "internalType": "uint256",
          "name": "",
          "type": "uint256"
        }
      ],
      "name": "usedSalts",
      "outputs": [
        {
          "internalType": "bool",
          "name": "",
          "type": "bool"
        }
      ],
      "stateMutability": "view",
      "type": "function"
    },
    {
      "inputs": [
        {
          "components": [
            {
              "internalType": "address",
              "name": "maker",
              "type": "address"
            },
            {
              "internalType": "uint256",
              "name": "marketId",
              "type": "uint256"
            },
            {
              "internalType": "uint256",
              "name": "outcomeId",
              "type": "uint256"
            },
            {
              "internalType": "uint256",
              "name": "price",
              "type": "uint256"
            },
            {
              "internalType": "uint256",
              "name": "size",
              "type": "uint256"
            },
            {
              "internalType": "bool",
              "name": "side",
              "type": "bool"
            },
            {
              "internalType": "uint256",
              "name": "expiry",
              "type": "uint256"
            },
            {
              "internalType": "uint256",
              "name": "salt",
              "type": "uint256"
            },
            {
              "internalType": "bytes",
              "name": "signature",
              "type": "bytes"
            }
          ],
          "internalType": "struct Exchange.Order",
          "name": "order",
          "type": "tuple"
        }
      ],
      "name": "verifyOrderSignature",
      "outputs": [
        {
          "internalType": "bool",
          "name": "",
          "type": "bool"
        }
      ],
      "stateMutability": "view",
      "type": "function"
    }
  ],
  "bytecode": "0x610160346200021c576001600160401b03601f6200216638819003918201601f19168401919083831185841017620002065781606092869260409586528339810103126200021c5762000052836200023d565b926200006e8262000066602084016200023d565b92016200023d565b908251926200007d8462000221565b6008845260208401926745786368616e676560c01b8452815196620000a28862000221565b600188526020880193603160f81b855260016000556001549360018060a01b031995338787161760015560018060a01b0395863391167f8be0079c531659141344cd1fd0a4f28419497f9722a3daafe3b4186f6b6457e0600080a3620001088962000252565b976101209889526200011a8c6200042f565b996101409a8b525190209a8b60e052519020926101009a848c524660a05282519460208601917f8b73c3c69bb8fe3d512ecc4cf759cc79239f7b179b0ffacaa9a75d522b39400f83528487015260608601524660808601523060a086015260a0855260c085019a858c10908c1117620002065786948b8694525190206080523060c0526014600755168560045416176004551683600554161760055516906006541617600655611b819384620005e58539608051846115d5015260a051846116a0015260c0518461159f015260e051846116240152518361164a0152518261050d015251816105370152f35b634e487b7160e01b600052604160045260246000fd5b600080fd5b604081019081106001600160401b038211176200020657604052565b51906001600160a01b03821682036200021c57565b805160209081811015620002ef5750601f8251116200028e57808251920151908083106200027f57501790565b82600019910360031b1b161790565b90604051809263305a27a960e01b82528060048301528251908160248401526000935b828510620002d5575050604492506000838284010152601f80199101168101030190fd5b8481018201518686016044015293810193859350620002b1565b906001600160401b0382116200020657600254926001938481811c9116801562000424575b838210146200040e57601f8111620003d4575b5081601f84116001146200036857509282939183926000946200035c575b50501b916000199060031b1c19161760025560ff90565b01519250388062000345565b919083601f198116600260005284600020946000905b88838310620003b957505050106200039f575b505050811b0160025560ff90565b015160001960f88460031b161c1916905538808062000391565b8587015188559096019594850194879350908101906200037e565b600260005284601f84600020920160051c820191601f860160051c015b8281106200040157505062000327565b60008155018590620003f1565b634e487b7160e01b600052602260045260246000fd5b90607f169062000314565b80516020919082811015620004bf575090601f8251116200045e57808251920151908083106200027f57501790565b90604051809263305a27a960e01b82528060048301528251908160248401526000935b828510620004a5575050604492506000838284010152601f80199101168101030190fd5b848101820151868601604401529381019385935062000481565b6001600160401b03811162000206576003928354926001938481811c91168015620005d9575b838210146200040e57601f8111620005a0575b5081601f84116001146200053757509282939183926000946200052b575b50501b9160001990841b1c191617905560ff90565b01519250388062000516565b919083601f1981168760005284600020946000905b888383106200058557505050106200056c575b505050811b01905560ff90565b015160001983861b60f8161c191690553880806200055f565b8587015188559096019594850194879350908101906200054c565b8560005284601f84600020920160051c820191601f860160051c015b828110620005cc575050620004f8565b60008155018590620005bc565b90607f1690620004e556fe6080604052600436101561001257600080fd5b600060e08135811c90816312e8e2c3146110ca5781631e6c598e1461104a5781631ec526a71461100157816322dcd13e14610fe35781633013ce2914610fba5781633112de9a14610f6f5781633644e51514610f5457816348014fc814610f255781634fd3b95314610ee757816354678dc914610eb857816361d027b314610e8f5781636a214d8114610e4a578163715018a614610ded57816379016c0514610d005781637c4dbb461461061357816384b0196e146104f75781638da5cb5b146104ce578163a998d6d8146104a5578163c63877eb1461029457508063f0f4426014610215578063f2fde38b1461014f5763f973a2091461011257600080fd5b3461014c578060031936011261014c5760206040517fe133c662038210fb3c5ca3cf3d63772307eff623804c8548dbee315b464c9f088152f35b80fd5b503461014c57602036600319011261014c5761016961117b565b61017161132d565b6001600160a01b039081169081156101c157600154826001600160601b0360a01b821617600155167f8be0079c531659141344cd1fd0a4f28419497f9722a3daafe3b4186f6b6457e0600080a380f35b60405162461bcd60e51b815260206004820152602660248201527f4f776e61626c653a206e6577206f776e657220697320746865207a65726f206160448201526564647265737360d01b6064820152608490fd5b503461014c57602036600319011261014c5761022f61117b565b61023761132d565b6001600160a01b0316801561025c576001600160601b0360a01b600654161760065580f35b60405162461bcd60e51b815260206004820152601060248201526f496e76616c696420747265617375727960801b6044820152606490fd5b9050346104a1576020908160031936011261049d5760043591600b54808411610495575b919390926102c581611385565b926102d360405194856111df565b818452601f196102e283611385565b01835b81811061044657506000199182810191508111845b8481106103945750505050506040519383859485019181865284518093528160408701950193905b83821061032f5786860387f35b845180518752808401516001600160a01b039081168886015260408083015190911690880152606080820151908801526080808201519088015260a0808201519088015260c09081015190870152879650948501949382019360019190910190610322565b819896979598610432576103b06103ab8285611a5a565b61112a565b506006604051916103c0836111a9565b8054835260018101546001600160a01b039081168a85015260028201541660408401526003810154606084015260048101546080840152600581015460a0840152015460c0820152610412828a611b37565b5261041d8189611b37565b508381146104325760010197949695976102fa565b634e487b7160e01b89526011600452602489fd5b95809497959660409493945161045b816111a9565b89815289838201528960408201528960608201528960808201528960a08201528960c082015282828a0101520196939594969291926102e5565b9250826102b8565b8280fd5b5080fd5b823461014c578060031936011261014c576005546040516001600160a01b039091168152602090f35b823461014c578060031936011261014c576001546040516001600160a01b039091168152602090f35b823461014c578060031936011261014c576105317f000000000000000000000000000000000000000000000000000000000000000061139c565b9061055b7f00000000000000000000000000000000000000000000000000000000000000006114c6565b60405191602091828401948486106001600160401b038711176105fd579492806105b3889693866040528585526105a5604051998a99600f60f81b8b5280868c01528a01906112ed565b9088820360408a01526112ed565b924660608801523060808801528460a088015286840360c088015251928381520193925b8281106105e657505050500390f35b8351855286955093810193928101926001016105d7565b634e487b7160e01b600052604160045260246000fd5b823461014c57604036600319011261014c576004356001600160401b0381116104a157610644903690600401611200565b90602435916002825414610cbb57600282558215610c7d5760c08101514211610c4857610670816116c6565b82526020926008845261068a60ff604085205416156119ae565b610693826116c6565b83526009845260ff604084205416610c125781516001600160a01b03168352600a845260408084209583018051855295855283205460ff16610bd9576106e06106db83611797565b6119f1565b608082015180821015610bd257505b6127109461071b86610705606086015185611a31565b049661071360075489611a31565b048097611a5a565b83516001600160a01b03168552600a8652604080862092518652918652908420805460ff1916600117905560a083015115610ab4576004805484516040516323b872dd60e01b80825233948201949094526001600160a01b03918216602482015260448101949094529192918791839160649183918a91165af1908115610aa9576107f6926107b488938a938991610a8c575b50611a7f565b6004805460065460405193845233928401929092526001600160a01b039182166024840152604483019390935290938492909116908290889082906064820190565b03925af1908115610a505790610813918591610a5f575b50611acb565b61082584830151604084015190611b1a565b60055483516001600160a01b03918216929116823b15610a5b57604051637921219560e11b81523360048201526001600160a01b0391909116602482015260448101919091526064810183905260a06084820152600060a4820152908490829060c490829084905af18015610a5057908491610a3c575b50505b838201519460018060a01b038351166040840151606085015191604051986108c68a6111a9565b895287890152336040890152606088015260808701528160a08701524260c0870152600b5468010000000000000000811015610a285780600161090c9201600b5561112a565b610a1457600660c08860019899518455888401898060a01b038b83015116906001600160601b0360a01b918282541617905560028501908a8060a01b0360408401511690825416179055606081015160038501556080810151600485015560a081015160058501550151910155608083015182146109f2575b61098e836116c6565b90858060a01b038451169287850151946060604082015191015190604051968752898701526040860152606085015260808401527fd0a08e8c493f9c94f29311604c9de1b4e8c8d4c06bd0c789af57f2d65bfec0f660a03394a45560405160018152f35b6109fb836116c6565b84526008865260408420805460ff191686179055610985565b634e487b7160e01b85526004859052602485fd5b634e487b7160e01b85526041600452602485fd5b610a4590611196565b61049d57828661089c565b6040513d86823e3d90fd5b8580fd5b610a7f9150863d8811610a85575b610a7781836111df565b810190611a67565b8761080d565b503d610a6d565b610aa39150853d8711610a8557610a7781836111df565b8b6107ae565b6040513d87823e3d90fd5b6004805484516040516323b872dd60e01b80825233948201949094526001600160a01b03918216602482015260448101949094529192918791839160649183918a91165af1908115610aa957610b17926107b488938a938991610a8c5750611a7f565b03925af1908115610a505790610b33918591610a5f5750611acb565b610b4584830151604084015190611b1a565b60055483516001600160a01b03918216929116823b15610a5b57604051637921219560e11b81526001600160a01b0391909116600482015233602482015260448101919091526064810183905260a06084820152600060a4820152908490829060c490829084905af18015610a5057610bbf575b5061089f565b610bcb90939193611196565b9185610bb9565b90506106ef565b60405162461bcd60e51b815260048101859052601160248201527014d85b1d08185b1c9958591e481d5cd959607a1b6044820152606490fd5b60405162461bcd60e51b815260048101859052600e60248201526d13dc99195c8818d85b98d95b195960921b6044820152606490fd5b60405162461bcd60e51b815260206004820152600d60248201526c13dc99195c88195e1c1a5c9959609a1b6044820152606490fd5b60405162461bcd60e51b8152602060048201526016602482015275054616b65722073697a65206d757374206265203e20360541b6044820152606490fd5b60405162461bcd60e51b815260206004820152601f60248201527f5265656e7472616e637947756172643a207265656e7472616e742063616c6c006044820152606490fd5b823461014c57602036600319011261014c576004356001600160401b0381116104a157610d31903690600401611200565b80516001600160a01b03163303610db05780610d526106db610d5793611797565b6116c6565b8082526008602052610d7060ff604084205416156119ae565b808252600960205260408220805460ff1916600117905533907fae41337bd1e05e429fc52474ce72902a09610e71a4c57c5f18741b69b4f60f098380a380f35b60405162461bcd60e51b815260206004820152601560248201527413db9b1e481b585ad95c8818d85b8818d85b98d95b605a1b6044820152606490fd5b823461014c578060031936011261014c57610e0661132d565b600180546001600160a01b0319811690915581906001600160a01b03167f8be0079c531659141344cd1fd0a4f28419497f9722a3daafe3b4186f6b6457e08280a380f35b823461014c57602036600319011261014c57600435906001600160401b03821161014c576020610e85610e803660048601611200565b611797565b6040519015158152f35b823461014c578060031936011261014c576006546040516001600160a01b039091168152602090f35b823461014c57602036600319011261014c5760ff60406020926004358152600984522054166040519015158152f35b823461014c57602036600319011261014c57600435906001600160401b03821161014c576020610f1d610d523660048601611200565b604051908152f35b823461014c57602036600319011261014c5760ff60406020926004358152600884522054166040519015158152f35b823461014c578060031936011261014c576020610f1d61159c565b823461014c57604036600319011261014c57600435908160011b9180830460021490151715610fa6576020610f1d60243584611b0d565b634e487b7160e01b81526011600452602490fd5b823461014c578060031936011261014c576004546040516001600160a01b039091168152602090f35b823461014c578060031936011261014c576020600754604051908152f35b823461014c57604036600319011261014c5760209060ff906040906001600160a01b0361102c61117b565b168152600a8452818120602435825284522054166040519015158152f35b823461014c57602036600319011261014c5760043590600b5482101561014c57506110749061112a565b5080549060018060a01b0390816001820154169160028201541660038201546004830154916006600585015494015494604051968752602087015260408601526060850152608084015260a083015260c0820152f35b823461014c57602036600319011261014c576004356110e761132d565b6103e881116110f65760075580f35b60405162461bcd60e51b815260206004820152600c60248201526b08ccaca40e8dede40d0d2ced60a31b6044820152606490fd5b600b5481101561116557600790600b600052027f0175b7a638427703f0dbe7bb9bbf987a2551717b34e79f33b5b1008d1fa01db90190600090565b634e487b7160e01b600052603260045260246000fd5b600435906001600160a01b038216820361119157565b600080fd5b6001600160401b0381116105fd57604052565b60e081019081106001600160401b038211176105fd57604052565b604081019081106001600160401b038211176105fd57604052565b90601f801991011681019081106001600160401b038211176105fd57604052565b9190610120928381830312611191576040516001600160401b03948101858111828210176105fd5760405293849082356001600160a01b03811681036111915782526020808401358184015260408401356040840152606084013560608401526080840135608084015260a084013580151581036111915760a084015260c084013560c084015260e084013560e084015261010093848101359083821161119157019185601f840112156111915782359081116105fd57604051956112ce601f8301601f19168401886111df565b8187528282850101116111915780826000940183880137850101520152565b919082519283825260005b848110611319575050826000602080949584010152601f8019910116010190565b6020818301810151848301820152016112f8565b6001546001600160a01b0316330361134157565b606460405162461bcd60e51b815260206004820152602060248201527f4f776e61626c653a2063616c6c6572206973206e6f7420746865206f776e65726044820152fd5b6001600160401b0381116105fd5760051b60200190565b60ff81146113da5760ff811690601f82116113c857604051916113be836111c4565b8252602082015290565b604051632cd44ac360e21b8152600490fd5b50604051600060025490600182811c908084169384156114bc575b60209485841081146114a857838752869493929181156114885750600114611429575b5050611426925003826111df565b90565b9093915060026000527f405787fa12a823e0f2b7631cc41b3ba8828b3321ca811111fa75cd3aa3bb5ace936000915b81831061147057505061142693508201013880611418565b85548784018501529485019486945091830191611458565b91505061142694925060ff191682840152151560051b8201013880611418565b634e487b7160e01b85526022600452602485fd5b91607f16916113f5565b60ff81146114e85760ff811690601f82116113c857604051916113be836111c4565b50604051600060035490600182811c90808416938415611592575b60209485841081146114a857838752869493929181156114885750600114611533575050611426925003826111df565b9093915060036000527fc2575a0e9e593c00f959f8c92f12db2869c3395a3b0502d05e2516446f71f85b936000915b81831061157a57505061142693508201013880611418565b85548784018501529485019486945091830191611562565b91607f1691611503565b307f00000000000000000000000000000000000000000000000000000000000000006001600160a01b0316148061169d575b156115f7577f000000000000000000000000000000000000000000000000000000000000000090565b60405160208101907f8b73c3c69bb8fe3d512ecc4cf759cc79239f7b179b0ffacaa9a75d522b39400f82527f000000000000000000000000000000000000000000000000000000000000000060408201527f000000000000000000000000000000000000000000000000000000000000000060608201524660808201523060a082015260a0815260c081018181106001600160401b038211176105fd5760405251902090565b507f000000000000000000000000000000000000000000000000000000000000000046146115ce565b60018060a01b038151166020820151916040810151906060810151608082015160a083015115159160e060c0850151940151946040519760208901977fe133c662038210fb3c5ca3cf3d63772307eff623804c8548dbee315b464c9f08895260408a01526060890152608088015260a087015260c086015260e0850152610100840152610120908184015282526101408201918083106001600160401b038411176105fd5760429260405251902061177c61159c565b906040519161190160f01b8352600283015260228201522090565b6117bb906117b36117a7826116c6565b610100830151906118e7565b9290926117cd565b516001600160a01b0391821691161490565b60058110156118d157806117de5750565b6001810361182b5760405162461bcd60e51b815260206004820152601860248201527f45434453413a20696e76616c6964207369676e617475726500000000000000006044820152606490fd5b600281036118785760405162461bcd60e51b815260206004820152601f60248201527f45434453413a20696e76616c6964207369676e6174757265206c656e677468006044820152606490fd5b60031461188157565b60405162461bcd60e51b815260206004820152602260248201527f45434453413a20696e76616c6964207369676e6174757265202773272076616c604482015261756560f01b6064820152608490fd5b634e487b7160e01b600052602160045260246000fd5b90604181511460001461191557611911916020820151906060604084015193015160001a9061191f565b9091565b5050600090600290565b9291907f7fffffffffffffffffffffffffffffff5d576e7357a4501ddfe92f46681b20a083116119a25791608094939160ff602094604051948552168484015260408301526060820152600093849182805260015afa156119955781516001600160a01b0381161561198f579190565b50600190565b50604051903d90823e3d90fd5b50505050600090600390565b156119b557565b60405162461bcd60e51b815260206004820152601460248201527313dc99195c88185b1c9958591e48199a5b1b195960621b6044820152606490fd5b156119f857565b60405162461bcd60e51b8152602060048201526011602482015270496e76616c6964207369676e617475726560781b6044820152606490fd5b81810292918115918404141715611a4457565b634e487b7160e01b600052601160045260246000fd5b91908203918211611a4457565b90816020910312611191575180151581036111915790565b15611a8657565b60405162461bcd60e51b815260206004820152601760248201527f5061796d656e74207472616e73666572206661696c65640000000000000000006044820152606490fd5b15611ad257565b60405162461bcd60e51b8152602060048201526013602482015272119959481d1c985b9cd9995c8819985a5b1959606a1b6044820152606490fd5b91908201809211611a4457565b908160011b9180830460021490151715611a445761142691611b0d565b80518210156111655760209160051b01019056fea2646970667358221220dec89302512708472acd96097132cdd2ee61b4435cf1fafe0659fc74039d4b8f64736f6c63430008130033",
  "linkReferences": {},
  "deployedLinkReferences": {}
}