{
  "_format": "hh-sol-artifact-1",
  "contractName": "MockUSDC",
  "sourceName": "contracts/MockUSDC.sol",
  "abi": [
    {
      "inputs": [],
      "stateMutability": "nonpayable",
      "type": "constructor"
    },
    {
      "anonymous": false,
      "inputs": [
        {
          "indexed": true,
          "internalType": "address",
          "name": "owner",
          "type": "address"
        },
        {
          "indexed": true,
          "internalType": "address",
          "name": "spender",
          "type": "address"
        },
        {
          "indexed": false,
          "internalType": "uint256",
          "name": "value",
          "type": "uint256"
        }
      ],
      "name": "Approval",
      "type": "event"
    },
    {
      "anonymous": false,
      "inputs": [
        {
          "indexed": true,
          "internalType": "address",
          "name": "previousOwner",
          "type": "address"
        },
        {
          "indexed": true,
          "internalType": "address",
          "name": "newOwner",
          "type": "address"
        }
      ],
      "name": "OwnershipTransferred",
      "type": "event"
    },
    {
      "anonymous": false,
      "inputs": [
        {
          "indexed": true,
          "internalType": "address",
          "name": "from",
          "type": "address"
        },
        {
          "indexed": true,
          "internalType": "address",
          "name": "to",
          "type": "address"
        },
        {
          "indexed": false,
          "internalType": "uint256",
          "name": "value",
          "type": "uint256"
        }
      ],
      "name": "Transfer",
      "type": "event"
    },
    {
      "inputs": [
        {
          "internalType": "address",
          "name": "owner",
          "type": "address"
        },
        {
          "internalType": "address",
          "name": "spender",
          "type": "address"
        }
      ],
      "name": "allowance",
      "outputs": [
        {
          "internalType": "uint256",
          "name": "",
          "type": "uint256"
        }
      ],
      "stateMutability": "view",
      "type": "function"
    },
    {
      "inputs": [
        {
          "internalType": "address",
          "name": "spender",
          "type": "address"
        },
        {
          "internalType": "uint256",
          "name": "amount",
          "type": "uint256"
        }
      ],
      "name": "approve",
      "outputs": [
        {
          "internalType": "bool",
          "name": "",
          "type": "bool"
        }
      ],
      "stateMutability": "nonpayable",
      "type": "function"
    },
    {
      "inputs": [
        {
          "internalType": "address",
          "name": "account",
          "type": "address"
        }
      ],
      "name": "balanceOf",
      "outputs": [
        {
          "internalType": "uint256",
          "name": "",
          "type": "uint256"
        }
      ],
      "stateMutability": "view",
      "type": "function"
    },
    {
      "inputs": [],
      "name": "decimals",
      "outputs": [
        {
          "internalType": "uint8",
          "name": "",
          "type": "uint8"
        }
      ],
      "stateMutability": "view",
      "type": "function"
    },
    {
      "inputs": [
        {
          "internalType": "address",
          "name": "spender",
          "type": "address"
        },
        {
          "internalType": "uint256",
          "name": "subtractedValue",
          "type": "uint256"
        }
      ],
      "name": "decreaseAllowance",
      "outputs": [
        {
          "internalType": "bool",
          "name": "",
          "type": "bool"
        }
      ],
      "stateMutability": "nonpayable",
      "type": "function"
    },
    {
      "inputs": [],
      "name": "faucet",
      "outputs": [],
      "stateMutability": "nonpayable",
      "type": "function"
    },
    {
      "inputs": [
        {
          "internalType": "address",
          "name": "to",
          "type": "address"
        },
        {
          "internalType": "uint256",
          "name": "amount",
          "type": "uint256"
        }
      ],
      "name": "faucetTo",
      "outputs": [],
      "stateMutability": "nonpayable",
      "type": "function"
    },
    {
      "inputs": [
        {
          "internalType": "address",
          "name": "spender",
          "type": "address"
        },
        {
          "internalType": "uint256",
          "name": "addedValue",
          "type": "uint256"
        }
      ],
      "name": "increaseAllowance",
      "outputs": [
        {
          "internalType": "bool",
          "name": "",
          "type": "bool"
        }
      ],
      "stateMutability": "nonpayable",
      "type": "function"
    },
    {
      "inputs": [
        {
          "internalType": "address",
          "name": "to",
          "type": "address"
        },
        {
          "internalType": "uint256",
          "name": "amount",
          "type": "uint256"
        }
      ],
      "name": "mint",
      "outputs": [],
      "stateMutability": "nonpayable",
      "type": "function"
    },
    {
      "inputs": [],
      "name": "name",
      "outputs": [
        {
          "internalType": "string",
          "name": "",
          "type": "string"
        }
      ],
      "stateMutability": "view",
      "type": "function"
    },
    {
      "inputs": [],
      "name": "owner",
      "outputs": [
        {
          "internalType": "address",
          "name": "",
          "type": "address"
        }
      ],
      "stateMutability": "view",
      "type": "function"
    },
    {
      "inputs": [],
      "name": "renounceOwnership",
      "outputs": [],
      "stateMutability": "nonpayable",
      "type": "function"
    },
    {
      "inputs": [],
      "name": "symbol",
      "outputs": [
        {
          "internalType": "string",
          "name": "",
          "type": "string"
        }
      ],
      "stateMutability": "view",
      "type": "function"
    },
    {
      "inputs": [],
      "name": "totalSupply",
      "outputs": [
        {
          "internalType": "uint256",
          "name": "",
          "type": "uint256"
        }
      ],
      "stateMutability": "view",
      "type": "function"
    },
    {
      "inputs": [
        {
          "internalType": "address",
          "name": "to",
          "type": "address"
        },
        {
          "internalType": "uint256",
          "name": "amount",
          "type": "uint256"
        }
      ],
      "name": "transfer",
      "outputs": [
        {
          "internalType": "bool",
          "name": "",
          "type": "bool"
        }
      ],
      "stateMutability": "nonpayable",
      "type": "function"
    },
    {
      "inputs": [
        {
          "internalType": "address",
          "name": "from",
          "type": "address"
        },
        {
          "internalType": "address",
          "name": "to",
          "type": "address"
        },
        {
          "internalType": "uint256",
          "name": "amount",
          "type": "uint256"
        }
      ],
      "name": "transferFrom",
      "outputs": [
        {
          "internalType": "bool",
          "name": "",
          "type": "bool"
        }
      ],
      "stateMutability": "nonpayable",
      "type": "function"
    },
    {
      "inputs": [
        {
          "internalType": "address",
          "name": "newOwner",
          "type": "address"
        }
      ],
      "name": "transferOwnership",
      "outputs": [],
      "stateMutability": "nonpayable",
      "type": "function"
    }
  ],
  "bytecode": "0x60803462000476576040906001600160401b038183018181118382101762000460578352600d82526020906c26b7b1b5902aa9a21021b7b4b760991b828401528351928484018481108382111762000460578552600491828552635553444360e01b848601528151948186116200044b576003908154966001948589811c9916801562000440575b888a10146200042b578190601f998a8111620003d5575b5088908a83116001146200036e5760009262000362575b505060001982851b1c191690851b1782555b80519283116200034d5784548481811c9116801562000342575b878210146200032d57878111620002e2575b50859087841160011462000277579383949184926000956200026b575b50501b92600019911b1c19161781555b60055484519060ff90336001600160a01b0382167f8be0079c531659141344cd1fd0a4f28419497f9722a3daafe3b4186f6b6457e0600080a36001600160a81b0319163360a083811b199190911691909117600360a11b176005819055901c16604d81116200025657600a0a93620f424094808602958604036200025657331562000219575050600254908382018092116200020457506000917fddf252ad1be2c89b69c2b068fc378daa952ba7f163c4a11628f55a4df523b3ef9160025533835282815284832084815401905584519384523393a351610ce290816200047c8239f35b601190634e487b7160e01b6000525260246000fd5b8360649362461bcd60e51b845283015260248201527f45524332303a206d696e7420746f20746865207a65726f2061646472657373006044820152fd5b601183634e487b7160e01b6000525260246000fd5b01519350388062000110565b9190601f198416928660005284886000209460005b8a89838310620002ca5750505010620002af575b50505050811b01815562000120565b01519060f884600019921b161c1916905538808080620002a0565b8686015189559097019694850194889350016200028c565b85600052866000208880860160051c82019289871062000323575b0160051c019085905b82811062000316575050620000f3565b6000815501859062000306565b92508192620002fd565b602286634e487b7160e01b6000525260246000fd5b90607f1690620000e1565b604185634e487b7160e01b6000525260246000fd5b015190503880620000b5565b90879350601f19831691866000528a6000209260005b8c828210620003be5750508411620003a5575b505050811b018255620000c7565b015160001983871b60f8161c1916905538808062000397565b8385015186558b9790950194938401930162000384565b90915084600052886000208a80850160051c8201928b861062000421575b918991869594930160051c01915b828110620004115750506200009e565b6000815585945089910162000401565b92508192620003f3565b602287634e487b7160e01b6000525260246000fd5b98607f169862000087565b604184634e487b7160e01b6000525260246000fd5b634e487b7160e01b600052604160045260246000fd5b600080fdfe6080604081815260048036101561001557600080fd5b600092833560e01c90816306fdde031461079e57508063095ea7b31461077457806318160ddd1461075557806323b872dd1461068b578063313ce56714610666578063395093511461061657806340c10f19146105e95780635e556a4a1461058457806370a082311461054d578063715018a6146104f05780638da5cb5b146104c757806395d89b41146103a7578063a457c2d714610300578063a9059cbb146102cf578063dd62ed3e14610286578063de5f72fd146101ac5763f2fde38b146100de57600080fd5b346101a85760203660031901126101a8576100f76108dc565b9061010061090d565b6001600160a01b03918216928315610156575050600554826bffffffffffffffffffffffff60a01b821617600555167f8be0079c531659141344cd1fd0a4f28419497f9722a3daafe3b4186f6b6457e08380a380f35b906020608492519162461bcd60e51b8352820152602660248201527f4f776e61626c653a206e6577206f776e657220697320746865207a65726f206160448201526564647265737360d01b6064820152fd5b8280fd5b5091903461028257816003193601126102825733825281602052808220549060ff60055460a01c16916101de83610c9b565b90612710918083029283040361026f57101561022d57506101fe90610c9b565b6103e8908082029182040361021a576102179033610bf8565b80f35b506011602492634e487b7160e01b835252fd5b5162461bcd60e51b8152602081850152601860248201527f416c7265616479206861766520656e6f756768205553444300000000000000006044820152606490fd5b634e487b7160e01b855260118652602485fd5b5080fd5b505034610282578060031936011261028257806020926102a46108dc565b6102ac6108f7565b6001600160a01b0391821683526001865283832091168252845220549051908152f35b5050346102825780600319360112610282576020906102f96102ef6108dc565b6024359033610988565b5160018152f35b5082346103a457826003193601126103a45761031a6108dc565b918360243592338152600160205281812060018060a01b0386168252602052205490828210610353576020856102f98585038733610af6565b608490602086519162461bcd60e51b8352820152602560248201527f45524332303a2064656372656173656420616c6c6f77616e63652062656c6f77604482015264207a65726f60d81b6064820152fd5b80fd5b50919034610282578160031936011261028257805190828454600181811c908083169283156104bd575b60209384841081146104aa5783885290811561048e5750600114610439575b505050829003601f01601f191682019267ffffffffffffffff8411838510176104265750829182610422925282610893565b0390f35b634e487b7160e01b815260418552602490fd5b8787529192508591837f8a35acfbc15ff81a39ae7d344fd709f28e8600b4aa8c65c6b64bfe7fe36bd19b5b83851061047a57505050508301013880806103f0565b805488860183015293019284908201610464565b60ff1916878501525050151560051b84010190503880806103f0565b634e487b7160e01b895260228a52602489fd5b91607f16916103d1565b50503461028257816003193601126102825760055490516001600160a01b039091168152602090f35b83346103a457806003193601126103a45761050961090d565b600580546001600160a01b0319811690915581906001600160a01b03167f8be0079c531659141344cd1fd0a4f28419497f9722a3daafe3b4186f6b6457e08280a380f35b5050346102825760203660031901126102825760209181906001600160a01b036105756108dc565b16815280845220549051908152f35b50919034610282573660031901126103a45761059e6108dc565b602435906105aa61090d565b6105bb60ff60055460a01c16610c9b565b918281029281840414901517156105d6579061021791610bf8565b634e487b7160e01b835260118452602483fd5b505034610282573660031901126103a4576102176106056108dc565b61060d61090d565b60243590610bf8565b5050346102825780600319360112610282576102f960209261065f6106396108dc565b338352600186528483206001600160a01b03821684528652918490205460243590610965565b9033610af6565b50503461028257816003193601126102825760209060ff60055460a01c169051908152f35b50829034610282576060366003190112610282576106a76108dc565b6106af6108f7565b91846044359460018060a01b0384168152600160205281812033825260205220549060001982036106e9575b6020866102f9878787610988565b8482106107125750918391610707602096956102f995033383610af6565b9193948193506106db565b606490602087519162461bcd60e51b8352820152601d60248201527f45524332303a20696e73756666696369656e7420616c6c6f77616e63650000006044820152fd5b5050346102825781600319360112610282576020906002549051908152f35b5050346102825780600319360112610282576020906102f96107946108dc565b6024359033610af6565b84915083346101a857826003193601126101a85782600354600181811c90808316928315610889575b60209384841081146104aa5783885290811561086d575060011461081757505050829003601f01601f191682019267ffffffffffffffff8411838510176104265750829182610422925282610893565b600387529192508591837fc2575a0e9e593c00f959f8c92f12db2869c3395a3b0502d05e2516446f71f85b5b83851061085957505050508301018580806103f0565b805488860183015293019284908201610843565b60ff1916878501525050151560051b84010190508580806103f0565b91607f16916107c7565b6020808252825181830181905290939260005b8281106108c857505060409293506000838284010152601f8019910116010190565b8181018601518482016040015285016108a6565b600435906001600160a01b03821682036108f257565b600080fd5b602435906001600160a01b03821682036108f257565b6005546001600160a01b0316330361092157565b606460405162461bcd60e51b815260206004820152602060248201527f4f776e61626c653a2063616c6c6572206973206e6f7420746865206f776e65726044820152fd5b9190820180921161097257565b634e487b7160e01b600052601160045260246000fd5b6001600160a01b03908116918215610aa35716918215610a52576000828152806020526040812054918083106109fe57604082827fddf252ad1be2c89b69c2b068fc378daa952ba7f163c4a11628f55a4df523b3ef958760209652828652038282205586815220818154019055604051908152a3565b60405162461bcd60e51b815260206004820152602660248201527f45524332303a207472616e7366657220616d6f756e7420657863656564732062604482015265616c616e636560d01b6064820152608490fd5b60405162461bcd60e51b815260206004820152602360248201527f45524332303a207472616e7366657220746f20746865207a65726f206164647260448201526265737360e81b6064820152608490fd5b60405162461bcd60e51b815260206004820152602560248201527f45524332303a207472616e736665722066726f6d20746865207a65726f206164604482015264647265737360d81b6064820152608490fd5b6001600160a01b03908116918215610ba75716918215610b575760207f8c5be1e5ebec7d5bd14f71427d1e84f3dd0314c0f7b2291e5b200ac8c7c3b925918360005260018252604060002085600052825280604060002055604051908152a3565b60405162461bcd60e51b815260206004820152602260248201527f45524332303a20617070726f766520746f20746865207a65726f206164647265604482015261737360f01b6064820152608490fd5b60405162461bcd60e51b8152602060048201526024808201527f45524332303a20617070726f76652066726f6d20746865207a65726f206164646044820152637265737360e01b6064820152608490fd5b6001600160a01b0316908115610c56577fddf252ad1be2c89b69c2b068fc378daa952ba7f163c4a11628f55a4df523b3ef602082610c3a600094600254610965565b60025584845283825260408420818154019055604051908152a3565b60405162461bcd60e51b815260206004820152601f60248201527f45524332303a206d696e7420746f20746865207a65726f2061646472657373006044820152606490fd5b60ff16604d811161097257600a0a9056fea264697066735822122030a8eb17cdd91a984eb0a6a2288c1bc23c19fb6980d701935e8d1a2142132bba64736f6c63430008130033",
  "linkReferences": {},
  "deployedLinkReferences": {}
}